{
    "_format": "hh-sol-artifact-1",
    "contractName": "SimpleWallet",
    "sourceName": "contracts/WalletFactory.sol",
    "abi": [
        {
            "inputs": [
                {
                    "internalType": "address",
                    "name": "_mainModule",
                    "type": "address"
                }
            ],
            "stateMutability": "nonpayable",
            "type": "constructor"
        },
        {
            "inputs": [
                {
                    "internalType": "address payable",
                    "name": "target",
                    "type": "address"
                },
                {
                    "internalType": "uint256",
                    "name": "value",
                    "type": "uint256"
                },
                {
                    "internalType": "bytes",
                    "name": "data",
                    "type": "bytes"
                }
            ],
            "name": "executeTransaction",
            "outputs": [],
            "stateMutability": "nonpayable",
            "type": "function"
        },
        {
            "inputs": [],
            "name": "mainModule",
            "outputs": [
                {
                    "internalType": "address",
                    "name": "",
                    "type": "address"
                }
            ],
            "stateMutability": "view",
            "type": "function"
        },
        {
            "stateMutability": "payable",
            "type": "receive"
        }
    ],
    "bytecode": "0x608060405234801561001057600080fd5b5060405161053d38038061053d833981810160405281019061003291906100db565b806000806101000a81548173ffffffffffffffffffffffffffffffffffffffff021916908373ffffffffffffffffffffffffffffffffffffffff16021790555050610108565b600080fd5b600073ffffffffffffffffffffffffffffffffffffffff82169050919050565b60006100a88261007d565b9050919050565b6100b88161009d565b81146100c357600080fd5b50565b6000815190506100d5816100af565b92915050565b6000602082840312156100f1576100f0610078565b5b60006100ff848285016100c6565b91505092915050565b610426806101176000396000f3fe60806040526004361061002d5760003560e01c80633ed940a7146100395780633f579f421461006457610034565b3661003457005b600080fd5b34801561004557600080fd5b5061004e61008d565b60405161005b91906101a9565b60405180910390f35b34801561007057600080fd5b5061008b600480360381019061008691906102a7565b6100b1565b005b60008054906101000a900473ffffffffffffffffffffffffffffffffffffffff1681565b60008473ffffffffffffffffffffffffffffffffffffffff168484846040516100db92919061035a565b60006040518083038185875af1925050503d8060008114610118576040519150601f19603f3d011682016040523d82523d6000602084013e61011d565b606091505b5050905080610161576040517f08c379a0000000000000000000000000000000000000000000000000000000008152600401610158906103d0565b60405180910390fd5b5050505050565b600073ffffffffffffffffffffffffffffffffffffffff82169050919050565b600061019382610168565b9050919050565b6101a381610188565b82525050565b60006020820190506101be600083018461019a565b92915050565b600080fd5b600080fd5b60006101d982610168565b9050919050565b6101e9816101ce565b81146101f457600080fd5b50565b600081359050610206816101e0565b92915050565b6000819050919050565b61021f8161020c565b811461022a57600080fd5b50565b60008135905061023c81610216565b92915050565b600080fd5b600080fd5b600080fd5b60008083601f84011261026757610266610242565b5b8235905067ffffffffffffffff81111561028457610283610247565b5b6020830191508360018202830111156102a05761029f61024c565b5b9250929050565b600080600080606085870312156102c1576102c06101c4565b5b60006102cf878288016101f7565b94505060206102e08782880161022d565b935050604085013567ffffffffffffffff811115610301576103006101c9565b5b61030d87828801610251565b925092505092959194509250565b600081905092915050565b82818337600083830152505050565b6000610341838561031b565b935061034e838584610326565b82840190509392505050565b6000610367828486610335565b91508190509392505050565b600082825260208201905092915050565b7f5472616e73616374696f6e206661696c65640000000000000000000000000000600082015250565b60006103ba601283610373565b91506103c582610384565b602082019050919050565b600060208201905081810360008301526103e9816103ad565b905091905056fea2646970667358221220a38f4caa95b558b341558d2335161c7faea853946274f6f54e3e4d6326194e6564736f6c63430008110033",
    "linkReferences": {},
    "deployedLinkReferences": {}
}