{
  "_format": "hh-sol-artifact-1",
  "contractName": "MainModuleMock",
  "sourceName": "contracts/mocks/MainModule.sol",
  "abi": [
    {
      "inputs": [
        {
          "internalType": "address",
          "name": "_factory",
          "type": "address"
        }
      ],
      "stateMutability": "nonpayable",
      "type": "constructor"
    },
    {
      "anonymous": false,
      "inputs": [
        {
          "indexed": false,
          "internalType": "address",
          "name": "_contract",
          "type": "address"
        }
      ],
      "name": "CreatedContract",
      "type": "event"
    },
    {
      "anonymous": false,
      "inputs": [
        {
          "indexed": false,
          "internalType": "address",
          "name": "newImplementation",
          "type": "address"
        }
      ],
      "name": "ImplementationUpdated",
      "type": "event"
    },
    {
      "anonymous": false,
      "inputs": [
        {
          "indexed": false,
          "internalType": "uint256",
          "name": "_space",
          "type": "uint256"
        },
        {
          "indexed": false,
          "internalType": "uint256",
          "name": "_newNonce",
          "type": "uint256"
        }
      ],
      "name": "NonceChange",
      "type": "event"
    },
    {
      "anonymous": true,
      "inputs": [
        {
          "indexed": false,
          "internalType": "bytes32",
          "name": "_tx",
          "type": "bytes32"
        }
      ],
      "name": "TxExecuted",
      "type": "event"
    },
    {
      "anonymous": false,
      "inputs": [
        {
          "indexed": false,
          "internalType": "bytes32",
          "name": "_tx",
          "type": "bytes32"
        },
        {
          "indexed": false,
          "internalType": "bytes",
          "name": "_reason",
          "type": "bytes"
        }
      ],
      "name": "TxFailed",
      "type": "event"
    },
    {
      "stateMutability": "payable",
      "type": "fallback"
    },
    {
      "inputs": [],
      "name": "FACTORY",
      "outputs": [
        {
          "internalType": "address",
          "name": "",
          "type": "address"
        }
      ],
      "stateMutability": "view",
      "type": "function"
    },
    {
      "inputs": [],
      "name": "INIT_CODE_HASH",
      "outputs": [
        {
          "internalType": "bytes32",
          "name": "",
          "type": "bytes32"
        }
      ],
      "stateMutability": "view",
      "type": "function"
    },
    {
      "inputs": [
        {
          "internalType": "bytes4",
          "name": "_signature",
          "type": "bytes4"
        },
        {
          "internalType": "address",
          "name": "_implementation",
          "type": "address"
        }
      ],
      "name": "addHook",
      "outputs": [],
      "stateMutability": "nonpayable",
      "type": "function"
    },
    {
      "inputs": [
        {
          "internalType": "bytes",
          "name": "_code",
          "type": "bytes"
        }
      ],
      "name": "createContract",
      "outputs": [
        {
          "internalType": "address",
          "name": "addr",
          "type": "address"
        }
      ],
      "stateMutability": "payable",
      "type": "function"
    },
    {
      "inputs": [
        {
          "components": [
            {
              "internalType": "bool",
              "name": "delegateCall",
              "type": "bool"
            },
            {
              "internalType": "bool",
              "name": "revertOnError",
              "type": "bool"
            },
            {
              "internalType": "uint256",
              "name": "gasLimit",
              "type": "uint256"
            },
            {
              "internalType": "address",
              "name": "target",
              "type": "address"
            },
            {
              "internalType": "uint256",
              "name": "value",
              "type": "uint256"
            },
            {
              "internalType": "bytes",
              "name": "data",
              "type": "bytes"
            }
          ],
          "internalType": "struct IModuleCalls.Transaction[]",
          "name": "_txs",
          "type": "tuple[]"
        },
        {
          "internalType": "uint256",
          "name": "_nonce",
          "type": "uint256"
        },
        {
          "internalType": "bytes",
          "name": "_signature",
          "type": "bytes"
        }
      ],
      "name": "execute",
      "outputs": [],
      "stateMutability": "nonpayable",
      "type": "function"
    },
    {
      "inputs": [
        {
          "internalType": "bytes32",
          "name": "_hash",
          "type": "bytes32"
        },
        {
          "internalType": "bytes",
          "name": "_signatures",
          "type": "bytes"
        }
      ],
      "name": "isValidSignature",
      "outputs": [
        {
          "internalType": "bytes4",
          "name": "",
          "type": "bytes4"
        }
      ],
      "stateMutability": "view",
      "type": "function"
    },
    {
      "inputs": [
        {
          "internalType": "bytes",
          "name": "_data",
          "type": "bytes"
        },
        {
          "internalType": "bytes",
          "name": "_signatures",
          "type": "bytes"
        }
      ],
      "name": "isValidSignature",
      "outputs": [
        {
          "internalType": "bytes4",
          "name": "",
          "type": "bytes4"
        }
      ],
      "stateMutability": "view",
      "type": "function"
    },
    {
      "inputs": [],
      "name": "nonce",
      "outputs": [
        {
          "internalType": "uint256",
          "name": "",
          "type": "uint256"
        }
      ],
      "stateMutability": "view",
      "type": "function"
    },
    {
      "inputs": [
        {
          "internalType": "address",
          "name": "",
          "type": "address"
        },
        {
          "internalType": "address",
          "name": "",
          "type": "address"
        },
        {
          "internalType": "uint256[]",
          "name": "",
          "type": "uint256[]"
        },
        {
          "internalType": "uint256[]",
          "name": "",
          "type": "uint256[]"
        },
        {
          "internalType": "bytes",
          "name": "",
          "type": "bytes"
        }
      ],
      "name": "onERC1155BatchReceived",
      "outputs": [
        {
          "internalType": "bytes4",
          "name": "",
          "type": "bytes4"
        }
      ],
      "stateMutability": "nonpayable",
      "type": "function"
    },
    {
      "inputs": [
        {
          "internalType": "address",
          "name": "",
          "type": "address"
        },
        {
          "internalType": "address",
          "name": "",
          "type": "address"
        },
        {
          "internalType": "uint256",
          "name": "",
          "type": "uint256"
        },
        {
          "internalType": "uint256",
          "name": "",
          "type": "uint256"
        },
        {
          "internalType": "bytes",
          "name": "",
          "type": "bytes"
        }
      ],
      "name": "onERC1155Received",
      "outputs": [
        {
          "internalType": "bytes4",
          "name": "",
          "type": "bytes4"
        }
      ],
      "stateMutability": "nonpayable",
      "type": "function"
    },
    {
      "inputs": [
        {
          "internalType": "address",
          "name": "",
          "type": "address"
        },
        {
          "internalType": "address",
          "name": "",
          "type": "address"
        },
        {
          "internalType": "uint256",
          "name": "",
          "type": "uint256"
        },
        {
          "internalType": "bytes",
          "name": "",
          "type": "bytes"
        }
      ],
      "name": "onERC721Received",
      "outputs": [
        {
          "internalType": "bytes4",
          "name": "",
          "type": "bytes4"
        }
      ],
      "stateMutability": "nonpayable",
      "type": "function"
    },
    {
      "inputs": [
        {
          "internalType": "bytes4",
          "name": "_signature",
          "type": "bytes4"
        }
      ],
      "name": "readHook",
      "outputs": [
        {
          "internalType": "address",
          "name": "",
          "type": "address"
        }
      ],
      "stateMutability": "view",
      "type": "function"
    },
    {
      "inputs": [
        {
          "internalType": "uint256",
          "name": "_space",
          "type": "uint256"
        }
      ],
      "name": "readNonce",
      "outputs": [
        {
          "internalType": "uint256",
          "name": "",
          "type": "uint256"
        }
      ],
      "stateMutability": "view",
      "type": "function"
    },
    {
      "inputs": [
        {
          "internalType": "bytes4",
          "name": "_signature",
          "type": "bytes4"
        }
      ],
      "name": "removeHook",
      "outputs": [],
      "stateMutability": "nonpayable",
      "type": "function"
    },
    {
      "inputs": [
        {
          "components": [
            {
              "internalType": "bool",
              "name": "delegateCall",
              "type": "bool"
            },
            {
              "internalType": "bool",
              "name": "revertOnError",
              "type": "bool"
            },
            {
              "internalType": "uint256",
              "name": "gasLimit",
              "type": "uint256"
            },
            {
              "internalType": "address",
              "name": "target",
              "type": "address"
            },
            {
              "internalType": "uint256",
              "name": "value",
              "type": "uint256"
            },
            {
              "internalType": "bytes",
              "name": "data",
              "type": "bytes"
            }
          ],
          "internalType": "struct IModuleCalls.Transaction[]",
          "name": "_txs",
          "type": "tuple[]"
        }
      ],
      "name": "selfExecute",
      "outputs": [],
      "stateMutability": "nonpayable",
      "type": "function"
    },
    {
      "inputs": [
        {
          "internalType": "bytes4",
          "name": "_interfaceID",
          "type": "bytes4"
        }
      ],
      "name": "supportsInterface",
      "outputs": [
        {
          "internalType": "bool",
          "name": "",
          "type": "bool"
        }
      ],
      "stateMutability": "pure",
      "type": "function"
    },
    {
      "inputs": [
        {
          "internalType": "address",
          "name": "_implementation",
          "type": "address"
        }
      ],
      "name": "updateImplementation",
      "outputs": [],
      "stateMutability": "nonpayable",
      "type": "function"
    },
    {
      "stateMutability": "payable",
      "type": "receive"
    }
  ],
  "bytecode": "0x60c06040523480156200001157600080fd5b50604051620045df380380620045df833981810160405281019062000037919062000147565b808060006040518060800160405280604381526020016200459c604391393073ffffffffffffffffffffffffffffffffffffffff166040516020016200007f92919062000221565b60405160208183030381529060405280519060200120905080608081815250508173ffffffffffffffffffffffffffffffffffffffff1660a08173ffffffffffffffffffffffffffffffffffffffff1681525050505050506200024d565b600080fd5b600073ffffffffffffffffffffffffffffffffffffffff82169050919050565b60006200010f82620000e2565b9050919050565b620001218162000102565b81146200012d57600080fd5b50565b600081519050620001418162000116565b92915050565b60006020828403121562000160576200015f620000dd565b5b6000620001708482850162000130565b91505092915050565b600081519050919050565b600081905092915050565b60005b83811015620001af57808201518184015260208101905062000192565b60008484015250505050565b6000620001c88262000179565b620001d4818562000184565b9350620001e68185602086016200018f565b80840191505092915050565b6000819050919050565b6000819050919050565b6200021b6200021582620001f2565b620001fc565b82525050565b60006200022f8285620001bb565b91506200023d828462000206565b6020820191508190509392505050565b60805160a05161431b620002816000396000818161083d0152611fdd0152600081816108190152611fff015261431b6000f3fe6080604052600436106101025760003560e01c80634fcf3eca1161009557806390042baf1161006457806390042baf1461046b578063affed0e01461049b578063b93ea7ad146104c6578063bc197c81146104ef578063f23a6e611461052c57610109565b80634fcf3eca146103b357806361c2926c146103dc5780637a9a1628146104055780638c3f55631461042e57610109565b80631a9b2337116100d15780631a9b2337146102e357806320c13b0b14610320578063257671f51461035d5780632dd310001461038857610109565b806301ffc9a714610203578063025b22bc14610240578063150b7a02146102695780631626ba7e146102a657610109565b3661010957005b60046000369050106102015760006101446000357fffffffff0000000000000000000000000000000000000000000000000000000016610569565b9050600073ffffffffffffffffffffffffffffffffffffffff168173ffffffffffffffffffffffffffffffffffffffff16146101ff576000808273ffffffffffffffffffffffffffffffffffffffff166000366040516101a59291906122b7565b600060405180830381855af49150503d80600081146101e0576040519150601f19603f3d011682016040523d82523d6000602084013e6101e5565b606091505b5091509150816101f757805160208201fd5b805160208201f35b505b005b34801561020f57600080fd5b5061022a6004803603810190610225919061233c565b6105c1565b6040516102379190612384565b60405180910390f35b34801561024c57600080fd5b50610267600480360381019061026291906123fd565b6105d3565b005b34801561027557600080fd5b50610290600480360381019061028b91906124c5565b6106e2565b60405161029d919061255c565b60405180910390f35b3480156102b257600080fd5b506102cd60048036038101906102c891906125ad565b6106f7565b6040516102da919061255c565b60405180910390f35b3480156102ef57600080fd5b5061030a6004803603810190610305919061233c565b610772565b604051610317919061261c565b60405180910390f35b34801561032c57600080fd5b5061034760048036038101906103429190612637565b610784565b604051610354919061255c565b60405180910390f35b34801561036957600080fd5b50610372610817565b60405161037f91906126c7565b60405180910390f35b34801561039457600080fd5b5061039d61083b565b6040516103aa919061261c565b60405180910390f35b3480156103bf57600080fd5b506103da60048036038101906103d5919061233c565b61085f565b005b3480156103e857600080fd5b5061040360048036038101906103fe91906129e7565b610952565b005b34801561041157600080fd5b5061042c60048036038101906104279190612a30565b610a01565b005b34801561043a57600080fd5b5061045560048036038101906104509190612abb565b610a98565b6040516104629190612af7565b60405180910390f35b61048560048036038101906104809190612b12565b610ad4565b604051610492919061261c565b60405180910390f35b3480156104a757600080fd5b506104b0610bf9565b6040516104bd9190612af7565b60405180910390f35b3480156104d257600080fd5b506104ed60048036038101906104e89190612b5b565b610c0a565b005b3480156104fb57600080fd5b5061051660048036038101906105119190612bf1565b610cfd565b604051610523919061255c565b60405180910390f35b34801561053857600080fd5b50610553600480360381019061054e9190612ccd565b610d15565b604051610560919061255c565b60405180910390f35b60006105b77f5f198cb61cfcc209f357b4ede4ad2218c53e3b4cb7e8fa1e8b0ec5e3951acbaa60001b837bffffffffffffffffffffffffffffffffffffffffffffffffffffffff1916610d2b565b60001c9050919050565b60006105cc82610d64565b9050919050565b3073ffffffffffffffffffffffffffffffffffffffff163373ffffffffffffffffffffffffffffffffffffffff1614610641576040517f08c379a000000000000000000000000000000000000000000000000000000000815260040161063890612dea565b60405180910390fd5b6106608173ffffffffffffffffffffffffffffffffffffffff16610de5565b61069f576040517f08c379a000000000000000000000000000000000000000000000000000000000815260040161069690612e7c565b60405180910390fd5b6106a881610df9565b7f310ba5f1d2ed074b51e2eccd052a47ae9ab7c6b800d1fca3db3999d6a592ca03816040516106d7919061261c565b60405180910390a150565b600063150b7a0260e01b905095945050505050565b600061074f61070585610dff565b84848080601f016020809104026020016040519081016040528093929190818152602001838380828437600081840152601f19601f82011690508083019250505050505050610e38565b1561076357631626ba7e60e01b905061076b565b600060e01b90505b9392505050565b600061077d82610569565b9050919050565b60006107f36107a9868660405161079c9291906122b7565b6040518091039020610dff565b84848080601f016020809104026020016040519081016040528093929190818152602001838380828437600081840152601f19601f82011690508083019250505050505050610e38565b15610807576320c13b0b60e01b905061080f565b600060e01b90505b949350505050565b7f000000000000000000000000000000000000000000000000000000000000000081565b7f000000000000000000000000000000000000000000000000000000000000000081565b3073ffffffffffffffffffffffffffffffffffffffff163373ffffffffffffffffffffffffffffffffffffffff16146108cd576040517f08c379a00000000000000000000000000000000000000000000000000000000081526004016108c490612dea565b60405180910390fd5b600073ffffffffffffffffffffffffffffffffffffffff166108ee82610569565b73ffffffffffffffffffffffffffffffffffffffff1603610944576040517f08c379a000000000000000000000000000000000000000000000000000000000815260040161093b90612f0e565b60405180910390fd5b61094f816000610e53565b50565b3073ffffffffffffffffffffffffffffffffffffffff163373ffffffffffffffffffffffffffffffffffffffff16146109c0576040517f08c379a00000000000000000000000000000000000000000000000000000000081526004016109b790612dea565b60405180910390fd5b60006109f1826040516020016109d69190613171565b60405160208183030381529060405280519060200120610dff565b90506109fd8183610ebd565b5050565b610a0a826110b1565b6000610a3d8385604051602001610a229291906131a6565b60405160208183030381529060405280519060200120610dff565b9050610a49818361116b565b610a88576040517f08c379a0000000000000000000000000000000000000000000000000000000008152600401610a7f90613248565b60405180910390fd5b610a928185610ebd565b50505050565b6000610aca7fc40e2218089ef03fc40794d84d38778f688da53b98c9236b084936bfafc9a60160001b8360001b610d2b565b60001c9050919050565b60003073ffffffffffffffffffffffffffffffffffffffff163373ffffffffffffffffffffffffffffffffffffffff1614610b44576040517f08c379a0000000000000000000000000000000000000000000000000000000008152600401610b3b90612dea565b60405180910390fd5b81516020830134f09050600073ffffffffffffffffffffffffffffffffffffffff168173ffffffffffffffffffffffffffffffffffffffff1603610bbd576040517f08c379a0000000000000000000000000000000000000000000000000000000008152600401610bb4906132b4565b60405180910390fd5b7fa506ad4e7f05eceba62a023c3219e5bd98a615f4fa87e2afb08a2da5cf62bf0c81604051610bec919061261c565b60405180910390a1919050565b6000610c056000610a98565b905090565b3073ffffffffffffffffffffffffffffffffffffffff163373ffffffffffffffffffffffffffffffffffffffff1614610c78576040517f08c379a0000000000000000000000000000000000000000000000000000000008152600401610c6f90612dea565b60405180910390fd5b600073ffffffffffffffffffffffffffffffffffffffff16610c9983610569565b73ffffffffffffffffffffffffffffffffffffffff1614610cef576040517f08c379a0000000000000000000000000000000000000000000000000000000008152600401610ce690613346565b60405180910390fd5b610cf98282610e53565b5050565b600063bc197c8160e01b905098975050505050505050565b600063f23a6e6160e01b90509695505050505050565b6000808383604051602001610d41929190613366565b604051602081830303815290604052805190602001209050805491505092915050565b60007f90042baf000000000000000000000000000000000000000000000000000000007bffffffffffffffffffffffffffffffffffffffffffffffffffffffff1916827bffffffffffffffffffffffffffffffffffffffffffffffffffffffff191603610dd45760019050610de0565b610ddd8261119d565b90505b919050565b600080823b90506000811415915050919050565b80305550565b600080469050803084604051602001610e1a93929190613470565b60405160208183030381529060405280519060200120915050919050565b600080610e458484611357565b505090508091505092915050565b610eb97f5f198cb61cfcc209f357b4ede4ad2218c53e3b4cb7e8fa1e8b0ec5e3951acbaa60001b837bffffffffffffffffffffffffffffffffffffffffffffffffffffffff19168373ffffffffffffffffffffffffffffffffffffffff1660001b61158e565b5050565b60005b81518110156110ac576000828281518110610ede57610edd6134b8565b5b602002602001015190506000606082604001515a1015610f33576040517f08c379a0000000000000000000000000000000000000000000000000000000008152600401610f2a90613559565b60405180910390fd5b826000015115610fd157826060015173ffffffffffffffffffffffffffffffffffffffff166000846040015114610f6e578360400151610f70565b5a5b8460a00151604051610f8291906135aa565b6000604051808303818686f4925050503d8060008114610fbe576040519150601f19603f3d011682016040523d82523d6000602084013e610fc3565b606091505b508092508193505050611069565b826060015173ffffffffffffffffffffffffffffffffffffffff1683608001516000856040015114611007578460400151611009565b5a5b908560a0015160405161101c91906135aa565b600060405180830381858888f193505050503d806000811461105a576040519150601f19603f3d011682016040523d82523d6000602084013e61105f565b606091505b5080925081935050505b811561108a578560405161107d91906126c7565b60405180910390a0611096565b6110958387836115c4565b5b50505080806110a4906135f0565b915050610ec0565b505050565b6000806110bd83611614565b9150915060006110cc83610a98565b9050808214611110576040517f08c379a000000000000000000000000000000000000000000000000000000000815260040161110790613684565b60405180910390fd5b600060018361111f91906136a4565b905061112b8482611642565b7f1f180c27086c7a39ea2a7b25239d1ab92348f07ca7bb59d1438fcf527568f881848260405161115c9291906136d8565b60405180910390a15050505050565b60008060008061117b8686611357565b9250925092508115611191576111908161167a565b5b82935050505092915050565b60007fec6aba50000000000000000000000000000000000000000000000000000000007bffffffffffffffffffffffffffffffffffffffffffffffffffffffff1916827bffffffffffffffffffffffffffffffffffffffffffffffffffffffff1916148061126857507f4e2312e0000000000000000000000000000000000000000000000000000000007bffffffffffffffffffffffffffffffffffffffffffffffffffffffff1916827bffffffffffffffffffffffffffffffffffffffffffffffffffffffff1916145b806112d057507f150b7a02000000000000000000000000000000000000000000000000000000007bffffffffffffffffffffffffffffffffffffffffffffffffffffffff1916827bffffffffffffffffffffffffffffffffffffffffffffffffffffffff1916145b8061133857507fc0ee0b8a000000000000000000000000000000000000000000000000000000007bffffffffffffffffffffffffffffffffffffffffffffffffffffffff1916827bffffffffffffffffffffffffffffffffffffffffffffffffffffffff1916145b156113465760019050611352565b61134f8261167d565b90505b919050565b6000806000806000611368866116fe565b9150915060008261ffff1660001b905060005b875183101561155857600080600061139c868c61175b90919063ffffffff16565b8260ff1692508160ff169150809850819450829550505050600183036113dc576113cf868c6117d890919063ffffffff16565b8097508192505050611523565b600083036114215760606113f9878d61186090919063ffffffff16565b809850819250505061140b8d82611937565b9150828561141991906136a4565b945050611522565b600283036114e65761143c868c6117d890919063ffffffff16565b80975081925050506000611459878d611c5d90919063ffffffff16565b8161ffff1691508098508192505050606061147f88838f611cd39092919063ffffffff16565b80995081925050506114928e8483611dc9565b6114d1576040517f08c379a00000000000000000000000000000000000000000000000000000000081526004016114c890613773565b60405180910390fd5b83866114dd91906136a4565b95505050611521565b6040517f08c379a000000000000000000000000000000000000000000000000000000000815260040161151890613805565b60405180910390fd5b5b5b84828260405160200161153893929190613825565b60405160208183030381529060405280519060200120945050505061137b565b60008061156484611fbc565b915091508561ffff1683101580156115795750815b81859850985098505050505050509250925092565b600083836040516020016115a3929190613366565b60405160208183030381529060405280519060200120905081815550505050565b8260200151156115d657805160208201fd5b7f3dbd1590ea96dd3253a91f24e64e3a502e1225d602a5731357bc12643070ccd782826040516116079291906138a6565b60405180910390a1505050565b600080600160606001901b61162991906138d6565b60001b8360001b1660001c9050606083901c9150915091565b6116767fc40e2218089ef03fc40794d84d38778f688da53b98c9236b084936bfafc9a60160001b8360001b8360001b61158e565b5050565b50565b60007f025b22bc000000000000000000000000000000000000000000000000000000007bffffffffffffffffffffffffffffffffffffffffffffffffffffffff1916827bffffffffffffffffffffffffffffffffffffffffffffffffffffffff1916036116ed57600190506116f9565b6116f68261206c565b90505b919050565b60008082602001518060f01c92506002915050825160021115611756576040517f08c379a000000000000000000000000000000000000000000000000000000000815260040161174d9061397c565b60405180910390fd5b915091565b6000806000846020018401518060f81c935060ff8160f01c1692506002850191505083811161178d5761178c61399c565b5b84518111156117d1576040517f08c379a00000000000000000000000000000000000000000000000000000000081526004016117c890613a3d565b60405180910390fd5b9250925092565b6000808360200183015173ffffffffffffffffffffffffffffffffffffffff8160601c169250601484019150508281116118155761181461399c565b5b8351811115611859576040517f08c379a000000000000000000000000000000000000000000000000000000000815260040161185090613acf565b60405180910390fd5b9250929050565b60606000604267ffffffffffffffff81111561187f5761187e6126f3565b5b6040519080825280601f01601f1916602001820160405280156118b15781602001600182028036833780820191505090505b509150828401602001805160208401526020810151604084015260228101516042840152604284019150508281116118ec576118eb61399c565b5b8351811115611930576040517f08c379a000000000000000000000000000000000000000000000000000000000815260040161192790613b61565b60405180910390fd5b9250929050565b6000604282511461197d576040517f08c379a000000000000000000000000000000000000000000000000000000000815260040161197490613bf3565b60405180910390fd5b6000826001845161198e91906138d6565b8151811061199f5761199e6134b8565b5b602001015160f81c60f81b60f81c60ff1690506000836040815181106119c8576119c76134b8565b5b602001015160f81c60f81b60f81c905060006119ee6000866120ed90919063ffffffff16565b90506000611a066020876120ed90919063ffffffff16565b90507f7fffffffffffffffffffffffffffffff5d576e7357a4501ddfe92f46681b20a08160001c1115611a6e576040517f08c379a0000000000000000000000000000000000000000000000000000000008152600401611a6590613c85565b60405180910390fd5b601b8360ff1614158015611a865750601c8360ff1614155b15611ac6576040517f08c379a0000000000000000000000000000000000000000000000000000000008152600401611abd90613d17565b60405180910390fd5b60018403611b245760018784848460405160008152602001604052604051611af19493929190613d53565b6020604051602081039080840390855afa158015611b13573d6000803e3d6000fd5b505050602060405103519450611be4565b60028403611ba857600187604051602001611b3f9190613de4565b6040516020818303038152906040528051906020012084848460405160008152602001604052604051611b759493929190613d53565b6020604051602081039080840390855afa158015611b97573d6000803e3d6000fd5b505050602060405103519450611be3565b6040517f08c379a0000000000000000000000000000000000000000000000000000000008152600401611bda90613e7c565b60405180910390fd5b5b600073ffffffffffffffffffffffffffffffffffffffff168573ffffffffffffffffffffffffffffffffffffffff1603611c53576040517f08c379a0000000000000000000000000000000000000000000000000000000008152600401611c4a90613f0e565b60405180910390fd5b5050505092915050565b6000808360200183015161ffff8160f01c16925060028401915050828111611c8857611c8761399c565b5b8351811115611ccc576040517f08c379a0000000000000000000000000000000000000000000000000000000008152600401611cc390613fa0565b60405180910390fd5b9250929050565b606060008267ffffffffffffffff811115611cf157611cf06126f3565b5b6040519080825280601f01601f191660200182016040528015611d235781602001600182028036833780820191505090505b509150838501602001600060205b85811015611d4f578183015181860152809150602081019050611d31565b856020018501805183850151838801528082528789019550505050505083811015611d7d57611d7c61399c565b5b8451811115611dc1576040517f08c379a0000000000000000000000000000000000000000000000000000000008152600401611db890614032565b60405180910390fd5b935093915050565b600080825103611e0e576040517f08c379a0000000000000000000000000000000000000000000000000000000008152600401611e05906140c4565b60405180910390fd5b60008260018451611e1f91906138d6565b81518110611e3057611e2f6134b8565b5b602001015160f81c60f81b60f81c60ff1690506001811480611e525750600281145b15611e96578373ffffffffffffffffffffffffffffffffffffffff16611e788685611937565b73ffffffffffffffffffffffffffffffffffffffff16149150611fb4565b60038103611f78576000835190506001810384528473ffffffffffffffffffffffffffffffffffffffff16631626ba7e87866040518363ffffffff1660e01b8152600401611ee59291906138a6565b602060405180830381865afa158015611f02573d6000803e3d6000fd5b505050506040513d601f19601f82011682018060405250810190611f2691906140f9565b7bffffffffffffffffffffffffffffffffffffffffffffffffffffffff1916631626ba7e60e01b7bffffffffffffffffffffffffffffffffffffffffffffffffffffffff191614925080845250611fb3565b6040517f08c379a0000000000000000000000000000000000000000000000000000000008152600401611faa90614198565b60405180910390fd5b5b509392505050565b6000803073ffffffffffffffffffffffffffffffffffffffff1660ff60f81b7f0000000000000000000000000000000000000000000000000000000000000000857f00000000000000000000000000000000000000000000000000000000000000006040516020016120319493929190614205565b6040516020818303038152906040528051906020012060001c73ffffffffffffffffffffffffffffffffffffffff1614600091509150915091565b60007f389901c7000000000000000000000000000000000000000000000000000000007bffffffffffffffffffffffffffffffffffffffffffffffffffffffff1916827bffffffffffffffffffffffffffffffffffffffffffffffffffffffff1916036120dc57600190506120e8565b6120e58261215d565b90505b919050565b60006020826120fc91906136a4565b8351101561213f576040517f08c379a0000000000000000000000000000000000000000000000000000000008152600401612136906142c5565b60405180910390fd5b600060208361214e91906136a4565b90508084015191505092915050565b6000807bffffffffffffffffffffffffffffffffffffffffffffffffffffffff1916827bffffffffffffffffffffffffffffffffffffffffffffffffffffffff1916148061220857507f36e78175000000000000000000000000000000000000000000000000000000007bffffffffffffffffffffffffffffffffffffffffffffffffffffffff1916827bffffffffffffffffffffffffffffffffffffffffffffffffffffffff1916145b156122165760019050612222565b61221f82612227565b90505b919050565b60006301ffc9a760e01b7bffffffffffffffffffffffffffffffffffffffffffffffffffffffff1916827bffffffffffffffffffffffffffffffffffffffffffffffffffffffff1916149050919050565b600081905092915050565b82818337600083830152505050565b600061229e8385612278565b93506122ab838584612283565b82840190509392505050565b60006122c4828486612292565b91508190509392505050565b6000604051905090565b600080fd5b600080fd5b60007fffffffff0000000000000000000000000000000000000000000000000000000082169050919050565b612319816122e4565b811461232457600080fd5b50565b60008135905061233681612310565b92915050565b600060208284031215612352576123516122da565b5b600061236084828501612327565b91505092915050565b60008115159050919050565b61237e81612369565b82525050565b60006020820190506123996000830184612375565b92915050565b600073ffffffffffffffffffffffffffffffffffffffff82169050919050565b60006123ca8261239f565b9050919050565b6123da816123bf565b81146123e557600080fd5b50565b6000813590506123f7816123d1565b92915050565b600060208284031215612413576124126122da565b5b6000612421848285016123e8565b91505092915050565b6000819050919050565b61243d8161242a565b811461244857600080fd5b50565b60008135905061245a81612434565b92915050565b600080fd5b600080fd5b600080fd5b60008083601f84011261248557612484612460565b5b8235905067ffffffffffffffff8111156124a2576124a1612465565b5b6020830191508360018202830111156124be576124bd61246a565b5b9250929050565b6000806000806000608086880312156124e1576124e06122da565b5b60006124ef888289016123e8565b9550506020612500888289016123e8565b94505060406125118882890161244b565b935050606086013567ffffffffffffffff811115612532576125316122df565b5b61253e8882890161246f565b92509250509295509295909350565b612556816122e4565b82525050565b6000602082019050612571600083018461254d565b92915050565b6000819050919050565b61258a81612577565b811461259557600080fd5b50565b6000813590506125a781612581565b92915050565b6000806000604084860312156125c6576125c56122da565b5b60006125d486828701612598565b935050602084013567ffffffffffffffff8111156125f5576125f46122df565b5b6126018682870161246f565b92509250509250925092565b612616816123bf565b82525050565b6000602082019050612631600083018461260d565b92915050565b60008060008060408587031215612651576126506122da565b5b600085013567ffffffffffffffff81111561266f5761266e6122df565b5b61267b8782880161246f565b9450945050602085013567ffffffffffffffff81111561269e5761269d6122df565b5b6126aa8782880161246f565b925092505092959194509250565b6126c181612577565b82525050565b60006020820190506126dc60008301846126b8565b92915050565b6000601f19601f8301169050919050565b7f4e487b7100000000000000000000000000000000000000000000000000000000600052604160045260246000fd5b61272b826126e2565b810181811067ffffffffffffffff8211171561274a576127496126f3565b5b80604052505050565b600061275d6122d0565b90506127698282612722565b919050565b600067ffffffffffffffff821115612789576127886126f3565b5b602082029050602081019050919050565b600080fd5b600080fd5b6127ad81612369565b81146127b857600080fd5b50565b6000813590506127ca816127a4565b92915050565b600080fd5b600067ffffffffffffffff8211156127f0576127ef6126f3565b5b6127f9826126e2565b9050602081019050919050565b6000612819612814846127d5565b612753565b905082815260208101848484011115612835576128346127d0565b5b612840848285612283565b509392505050565b600082601f83011261285d5761285c612460565b5b813561286d848260208601612806565b91505092915050565b600060c0828403121561288c5761288b61279a565b5b61289660c0612753565b905060006128a6848285016127bb565b60008301525060206128ba848285016127bb565b60208301525060406128ce8482850161244b565b60408301525060606128e2848285016123e8565b60608301525060806128f68482850161244b565b60808301525060a082013567ffffffffffffffff81111561291a5761291961279f565b5b61292684828501612848565b60a08301525092915050565b60006129456129408461276e565b612753565b905080838252602082019050602084028301858111156129685761296761246a565b5b835b818110156129af57803567ffffffffffffffff81111561298d5761298c612460565b5b80860161299a8982612876565b8552602085019450505060208101905061296a565b5050509392505050565b600082601f8301126129ce576129cd612460565b5b81356129de848260208601612932565b91505092915050565b6000602082840312156129fd576129fc6122da565b5b600082013567ffffffffffffffff811115612a1b57612a1a6122df565b5b612a27848285016129b9565b91505092915050565b600080600060608486031215612a4957612a486122da565b5b600084013567ffffffffffffffff811115612a6757612a666122df565b5b612a73868287016129b9565b9350506020612a848682870161244b565b925050604084013567ffffffffffffffff811115612aa557612aa46122df565b5b612ab186828701612848565b9150509250925092565b600060208284031215612ad157612ad06122da565b5b6000612adf8482850161244b565b91505092915050565b612af18161242a565b82525050565b6000602082019050612b0c6000830184612ae8565b92915050565b600060208284031215612b2857612b276122da565b5b600082013567ffffffffffffffff811115612b4657612b456122df565b5b612b5284828501612848565b91505092915050565b60008060408385031215612b7257612b716122da565b5b6000612b8085828601612327565b9250506020612b91858286016123e8565b9150509250929050565b60008083601f840112612bb157612bb0612460565b5b8235905067ffffffffffffffff811115612bce57612bcd612465565b5b602083019150836020820283011115612bea57612be961246a565b5b9250929050565b60008060008060008060008060a0898b031215612c1157612c106122da565b5b6000612c1f8b828c016123e8565b9850506020612c308b828c016123e8565b975050604089013567ffffffffffffffff811115612c5157612c506122df565b5b612c5d8b828c01612b9b565b9650965050606089013567ffffffffffffffff811115612c8057612c7f6122df565b5b612c8c8b828c01612b9b565b9450945050608089013567ffffffffffffffff811115612caf57612cae6122df565b5b612cbb8b828c0161246f565b92509250509295985092959890939650565b60008060008060008060a08789031215612cea57612ce96122da565b5b6000612cf889828a016123e8565b9650506020612d0989828a016123e8565b9550506040612d1a89828a0161244b565b9450506060612d2b89828a0161244b565b935050608087013567ffffffffffffffff811115612d4c57612d4b6122df565b5b612d5889828a0161246f565b92509250509295509295509295565b600082825260208201905092915050565b7f4d6f64756c6553656c6641757468236f6e6c7953656c663a204e4f545f41555460008201527f484f52495a454400000000000000000000000000000000000000000000000000602082015250565b6000612dd4602783612d67565b9150612ddf82612d78565b604082019050919050565b60006020820190508181036000830152612e0381612dc7565b9050919050565b7f4d6f64756c6555706461746523757064617465496d706c656d656e746174696f60008201527f6e3a20494e56414c49445f494d504c454d454e544154494f4e00000000000000602082015250565b6000612e66603983612d67565b9150612e7182612e0a565b604082019050919050565b60006020820190508181036000830152612e9581612e59565b9050919050565b7f4d6f64756c65486f6f6b732372656d6f7665486f6f6b3a20484f4f4b5f4e4f5460008201527f5f52454749535445524544000000000000000000000000000000000000000000602082015250565b6000612ef8602b83612d67565b9150612f0382612e9c565b604082019050919050565b60006020820190508181036000830152612f2781612eeb565b9050919050565b7f73656c663a000000000000000000000000000000000000000000000000000000600082015250565b6000612f64600583612d67565b9150612f6f82612f2e565b602082019050919050565b600081519050919050565b600082825260208201905092915050565b6000819050602082019050919050565b612faf81612369565b82525050565b612fbe8161242a565b82525050565b612fcd816123bf565b82525050565b600081519050919050565b600082825260208201905092915050565b60005b8381101561300d578082015181840152602081019050612ff2565b60008484015250505050565b600061302482612fd3565b61302e8185612fde565b935061303e818560208601612fef565b613047816126e2565b840191505092915050565b600060c08301600083015161306a6000860182612fa6565b50602083015161307d6020860182612fa6565b5060408301516130906040860182612fb5565b5060608301516130a36060860182612fc4565b5060808301516130b66080860182612fb5565b5060a083015184820360a08601526130ce8282613019565b9150508091505092915050565b60006130e78383613052565b905092915050565b6000602082019050919050565b600061310782612f7a565b6131118185612f85565b93508360208202850161312385612f96565b8060005b8581101561315f578484038952815161314085826130db565b945061314b836130ef565b925060208a01995050600181019050613127565b50829750879550505050505092915050565b6000604082019050818103600083015261318a81612f57565b9050818103602083015261319e81846130fc565b905092915050565b60006040820190506131bb6000830185612ae8565b81810360208301526131cd81846130fc565b90509392505050565b7f4d6f64756c6543616c6c7323657865637574653a20494e56414c49445f53494760008201527f4e41545552450000000000000000000000000000000000000000000000000000602082015250565b6000613232602683612d67565b915061323d826131d6565b604082019050919050565b6000602082019050818103600083015261326181613225565b9050919050565b7f4d6f64756c6543726561746f723a206372656174696f6e206661696c65640000600082015250565b600061329e601e83612d67565b91506132a982613268565b602082019050919050565b600060208201905081810360008301526132cd81613291565b9050919050565b7f4d6f64756c65486f6f6b7323616464486f6f6b3a20484f4f4b5f414c5245414460008201527f595f524547495354455245440000000000000000000000000000000000000000602082015250565b6000613330602c83612d67565b915061333b826132d4565b604082019050919050565b6000602082019050818103600083015261335f81613323565b9050919050565b600060408201905061337b60008301856126b8565b61338860208301846126b8565b9392505050565b600081905092915050565b7f1901000000000000000000000000000000000000000000000000000000000000600082015250565b60006133d060028361338f565b91506133db8261339a565b600282019050919050565b6000819050919050565b6134016133fc8261242a565b6133e6565b82525050565b60008160601b9050919050565b600061341f82613407565b9050919050565b600061343182613414565b9050919050565b613449613444826123bf565b613426565b82525050565b6000819050919050565b61346a61346582612577565b61344f565b82525050565b600061347b826133c3565b915061348782866133f0565b6020820191506134978285613438565b6014820191506134a78284613459565b602082019150819050949350505050565b7f4e487b7100000000000000000000000000000000000000000000000000000000600052603260045260246000fd5b7f4d6f64756c6543616c6c73235f657865637574653a204e4f545f454e4f55474860008201527f5f47415300000000000000000000000000000000000000000000000000000000602082015250565b6000613543602483612d67565b915061354e826134e7565b604082019050919050565b6000602082019050818103600083015261357281613536565b9050919050565b600061358482612fd3565b61358e8185612278565b935061359e818560208601612fef565b80840191505092915050565b60006135b68284613579565b915081905092915050565b7f4e487b7100000000000000000000000000000000000000000000000000000000600052601160045260246000fd5b60006135fb8261242a565b91507fffffffffffffffffffffffffffffffffffffffffffffffffffffffffffffffff820361362d5761362c6135c1565b5b600182019050919050565b7f4d61696e4d6f64756c65235f617574683a20494e56414c49445f4e4f4e434500600082015250565b600061366e601f83612d67565b915061367982613638565b602082019050919050565b6000602082019050818103600083015261369d81613661565b9050919050565b60006136af8261242a565b91506136ba8361242a565b92508282019050808211156136d2576136d16135c1565b5b92915050565b60006040820190506136ed6000830185612ae8565b6136fa6020830184612ae8565b9392505050565b7f4d6f64756c6541757468235f7369676e617475726556616c69646174696f6e3a60008201527f20494e56414c49445f5349474e41545552450000000000000000000000000000602082015250565b600061375d603283612d67565b915061376882613701565b604082019050919050565b6000602082019050818103600083015261378c81613750565b9050919050565b7f4d6f64756c6541757468235f7369676e617475726556616c69646174696f6e2060008201527f494e56414c49445f464c41470000000000000000000000000000000000000000602082015250565b60006137ef602c83612d67565b91506137fa82613793565b604082019050919050565b6000602082019050818103600083015261381e816137e2565b9050919050565b600060608201905061383a60008301866126b8565b6138476020830185612ae8565b613854604083018461260d565b949350505050565b600082825260208201905092915050565b600061387882612fd3565b613882818561385c565b9350613892818560208601612fef565b61389b816126e2565b840191505092915050565b60006040820190506138bb60008301856126b8565b81810360208301526138cd818461386d565b90509392505050565b60006138e18261242a565b91506138ec8361242a565b9250828203905081811115613904576139036135c1565b5b92915050565b7f4c696242797465732372656164466972737455696e7431363a204f55545f4f4660008201527f5f424f554e445300000000000000000000000000000000000000000000000000602082015250565b6000613966602783612d67565b91506139718261390a565b604082019050919050565b6000602082019050818103600083015261399581613959565b9050919050565b7f4e487b7100000000000000000000000000000000000000000000000000000000600052600160045260246000fd5b7f4c69624279746573237265616455696e743855696e74383a204f55545f4f465f60008201527f424f554e44530000000000000000000000000000000000000000000000000000602082015250565b6000613a27602683612d67565b9150613a32826139cb565b604082019050919050565b60006020820190508181036000830152613a5681613a1a565b9050919050565b7f4c696242797465732372656164416464726573733a204f55545f4f465f424f5560008201527f4e44530000000000000000000000000000000000000000000000000000000000602082015250565b6000613ab9602383612d67565b9150613ac482613a5d565b604082019050919050565b60006020820190508181036000830152613ae881613aac565b9050919050565b7f4c696242797465732372656164427974657336363a204f55545f4f465f424f5560008201527f4e44530000000000000000000000000000000000000000000000000000000000602082015250565b6000613b4b602383612d67565b9150613b5682613aef565b604082019050919050565b60006020820190508181036000830152613b7a81613b3e565b9050919050565b7f5369676e617475726556616c696461746f72237265636f7665725369676e657260008201527f3a20696e76616c6964207369676e6174757265206c656e677468000000000000602082015250565b6000613bdd603a83612d67565b9150613be882613b81565b604082019050919050565b60006020820190508181036000830152613c0c81613bd0565b9050919050565b7f5369676e617475726556616c696461746f72237265636f7665725369676e657260008201527f3a20696e76616c6964207369676e6174757265202773272076616c7565000000602082015250565b6000613c6f603d83612d67565b9150613c7a82613c13565b604082019050919050565b60006020820190508181036000830152613c9e81613c62565b9050919050565b7f5369676e617475726556616c696461746f72237265636f7665725369676e657260008201527f3a20696e76616c6964207369676e6174757265202776272076616c7565000000602082015250565b6000613d01603d83612d67565b9150613d0c82613ca5565b604082019050919050565b60006020820190508181036000830152613d3081613cf4565b9050919050565b600060ff82169050919050565b613d4d81613d37565b82525050565b6000608082019050613d6860008301876126b8565b613d756020830186613d44565b613d8260408301856126b8565b613d8f60608301846126b8565b95945050505050565b7f19457468657265756d205369676e6564204d6573736167653a0a333200000000600082015250565b6000613dce601c8361338f565b9150613dd982613d98565b601c82019050919050565b6000613def82613dc1565b9150613dfb8284613459565b60208201915081905092915050565b7f5369676e617475726556616c696461746f72237265636f7665725369676e657260008201527f3a20554e535550504f525445445f5349474e41545552455f5459504500000000602082015250565b6000613e66603c83612d67565b9150613e7182613e0a565b604082019050919050565b60006020820190508181036000830152613e9581613e59565b9050919050565b7f5369676e617475726556616c696461746f72237265636f7665725369676e657260008201527f3a20494e56414c49445f5349474e455200000000000000000000000000000000602082015250565b6000613ef8603083612d67565b9150613f0382613e9c565b604082019050919050565b60006020820190508181036000830152613f2781613eeb565b9050919050565b7f4c69624279746573237265616455696e7431363a204f55545f4f465f424f554e60008201527f4453000000000000000000000000000000000000000000000000000000000000602082015250565b6000613f8a602283612d67565b9150613f9582613f2e565b604082019050919050565b60006020820190508181036000830152613fb981613f7d565b9050919050565b7f4c69624279746573237265616442797465733a204f55545f4f465f424f554e4460008201527f5300000000000000000000000000000000000000000000000000000000000000602082015250565b600061401c602183612d67565b915061402782613fc0565b604082019050919050565b6000602082019050818103600083015261404b8161400f565b9050919050565b7f5369676e617475726556616c696461746f7223697356616c69645369676e617460008201527f7572653a207369676e617475726520697320656d707479000000000000000000602082015250565b60006140ae603783612d67565b91506140b982614052565b604082019050919050565b600060208201905081810360008301526140dd816140a1565b9050919050565b6000815190506140f381612310565b92915050565b60006020828403121561410f5761410e6122da565b5b600061411d848285016140e4565b91505092915050565b7f5369676e617475726556616c696461746f7223697356616c69645369676e617460008201527f7572653a20554e535550504f525445445f5349474e41545552455f5459504500602082015250565b6000614182603f83612d67565b915061418d82614126565b604082019050919050565b600060208201905081810360008301526141b181614175565b9050919050565b60007fff0000000000000000000000000000000000000000000000000000000000000082169050919050565b6000819050919050565b6141ff6141fa826141b8565b6141e4565b82525050565b600061421182876141ee565b6001820191506142218286613438565b6014820191506142318285613459565b6020820191506142418284613459565b60208201915081905095945050505050565b7f4c696242797465732372656164427974657333323a20475245415445525f4f5260008201527f5f455155414c5f544f5f33325f4c454e4754485f524551554952454400000000602082015250565b60006142af603c83612d67565b91506142ba82614253565b604082019050919050565b600060208201905081810360008301526142de816142a2565b905091905056fea2646970667358221220a64194b38545ea4eeefe29bd8983443d721a038b513a6863a2b7b747137be8f564736f6c634300081100336054600f3d396034805130553df3fe63906111273d3560e01c14602b57363d3d373d3d3d3d369030545af43d82803e156027573d90f35b3d90fd5b30543d5260203df3",
  "linkReferences": {},
  "deployedLinkReferences": {}
}