{
  "_format": "hh-sol-artifact-1",
  "contractName": "MultiCallDeploy",
  "sourceName": "contracts/MultiCallDeploy.sol",
  "abi": [
    {
      "inputs": [
        {
          "internalType": "address",
          "name": "_admin",
          "type": "address"
        },
        {
          "internalType": "address",
          "name": "_executor",
          "type": "address"
        }
      ],
      "stateMutability": "nonpayable",
      "type": "constructor"
    },
    {
      "anonymous": false,
      "inputs": [
        {
          "indexed": true,
          "internalType": "bytes32",
          "name": "role",
          "type": "bytes32"
        },
        {
          "indexed": true,
          "internalType": "bytes32",
          "name": "previousAdminRole",
          "type": "bytes32"
        },
        {
          "indexed": true,
          "internalType": "bytes32",
          "name": "newAdminRole",
          "type": "bytes32"
        }
      ],
      "name": "RoleAdminChanged",
      "type": "event"
    },
    {
      "anonymous": false,
      "inputs": [
        {
          "indexed": true,
          "internalType": "bytes32",
          "name": "role",
          "type": "bytes32"
        },
        {
          "indexed": true,
          "internalType": "address",
          "name": "account",
          "type": "address"
        },
        {
          "indexed": true,
          "internalType": "address",
          "name": "sender",
          "type": "address"
        }
      ],
      "name": "RoleGranted",
      "type": "event"
    },
    {
      "anonymous": false,
      "inputs": [
        {
          "indexed": true,
          "internalType": "bytes32",
          "name": "role",
          "type": "bytes32"
        },
        {
          "indexed": true,
          "internalType": "address",
          "name": "account",
          "type": "address"
        },
        {
          "indexed": true,
          "internalType": "address",
          "name": "sender",
          "type": "address"
        }
      ],
      "name": "RoleRevoked",
      "type": "event"
    },
    {
      "inputs": [],
      "name": "DEFAULT_ADMIN_ROLE",
      "outputs": [
        {
          "internalType": "bytes32",
          "name": "",
          "type": "bytes32"
        }
      ],
      "stateMutability": "view",
      "type": "function"
    },
    {
      "inputs": [],
      "name": "EXECUTOR_ROLE",
      "outputs": [
        {
          "internalType": "bytes32",
          "name": "",
          "type": "bytes32"
        }
      ],
      "stateMutability": "view",
      "type": "function"
    },
    {
      "inputs": [
        {
          "internalType": "address",
          "name": "cfa",
          "type": "address"
        },
        {
          "internalType": "address",
          "name": "_mainModule",
          "type": "address"
        },
        {
          "internalType": "bytes32",
          "name": "_salt",
          "type": "bytes32"
        },
        {
          "internalType": "address",
          "name": "factory",
          "type": "address"
        },
        {
          "components": [
            {
              "internalType": "bool",
              "name": "delegateCall",
              "type": "bool"
            },
            {
              "internalType": "bool",
              "name": "revertOnError",
              "type": "bool"
            },
            {
              "internalType": "uint256",
              "name": "gasLimit",
              "type": "uint256"
            },
            {
              "internalType": "address",
              "name": "target",
              "type": "address"
            },
            {
              "internalType": "uint256",
              "name": "value",
              "type": "uint256"
            },
            {
              "internalType": "bytes",
              "name": "data",
              "type": "bytes"
            }
          ],
          "internalType": "struct IModuleCalls.Transaction[]",
          "name": "_txs",
          "type": "tuple[]"
        },
        {
          "internalType": "uint256",
          "name": "_nonce",
          "type": "uint256"
        },
        {
          "internalType": "bytes",
          "name": "_signature",
          "type": "bytes"
        }
      ],
      "name": "deployAndExecute",
      "outputs": [],
      "stateMutability": "nonpayable",
      "type": "function"
    },
    {
      "inputs": [
        {
          "internalType": "address",
          "name": "_mainModule",
          "type": "address"
        },
        {
          "internalType": "bytes32",
          "name": "_salt",
          "type": "bytes32"
        },
        {
          "internalType": "address",
          "name": "factory",
          "type": "address"
        },
        {
          "components": [
            {
              "internalType": "bool",
              "name": "delegateCall",
              "type": "bool"
            },
            {
              "internalType": "bool",
              "name": "revertOnError",
              "type": "bool"
            },
            {
              "internalType": "uint256",
              "name": "gasLimit",
              "type": "uint256"
            },
            {
              "internalType": "address",
              "name": "target",
              "type": "address"
            },
            {
              "internalType": "uint256",
              "name": "value",
              "type": "uint256"
            },
            {
              "internalType": "bytes",
              "name": "data",
              "type": "bytes"
            }
          ],
          "internalType": "struct IModuleCalls.Transaction[]",
          "name": "_txs",
          "type": "tuple[]"
        },
        {
          "internalType": "uint256",
          "name": "_nonce",
          "type": "uint256"
        },
        {
          "internalType": "bytes",
          "name": "_signature",
          "type": "bytes"
        }
      ],
      "name": "deployExecute",
      "outputs": [],
      "stateMutability": "nonpayable",
      "type": "function"
    },
    {
      "inputs": [
        {
          "internalType": "bytes32",
          "name": "role",
          "type": "bytes32"
        }
      ],
      "name": "getRoleAdmin",
      "outputs": [
        {
          "internalType": "bytes32",
          "name": "",
          "type": "bytes32"
        }
      ],
      "stateMutability": "view",
      "type": "function"
    },
    {
      "inputs": [
        {
          "internalType": "address",
          "name": "_executor",
          "type": "address"
        }
      ],
      "name": "grantExecutorRole",
      "outputs": [],
      "stateMutability": "nonpayable",
      "type": "function"
    },
    {
      "inputs": [
        {
          "internalType": "bytes32",
          "name": "role",
          "type": "bytes32"
        },
        {
          "internalType": "address",
          "name": "account",
          "type": "address"
        }
      ],
      "name": "grantRole",
      "outputs": [],
      "stateMutability": "nonpayable",
      "type": "function"
    },
    {
      "inputs": [
        {
          "internalType": "bytes32",
          "name": "role",
          "type": "bytes32"
        },
        {
          "internalType": "address",
          "name": "account",
          "type": "address"
        }
      ],
      "name": "hasRole",
      "outputs": [
        {
          "internalType": "bool",
          "name": "",
          "type": "bool"
        }
      ],
      "stateMutability": "view",
      "type": "function"
    },
    {
      "inputs": [
        {
          "internalType": "bytes32",
          "name": "role",
          "type": "bytes32"
        },
        {
          "internalType": "address",
          "name": "account",
          "type": "address"
        }
      ],
      "name": "renounceRole",
      "outputs": [],
      "stateMutability": "nonpayable",
      "type": "function"
    },
    {
      "inputs": [
        {
          "internalType": "bytes32",
          "name": "role",
          "type": "bytes32"
        },
        {
          "internalType": "address",
          "name": "account",
          "type": "address"
        }
      ],
      "name": "revokeRole",
      "outputs": [],
      "stateMutability": "nonpayable",
      "type": "function"
    },
    {
      "inputs": [
        {
          "internalType": "bytes4",
          "name": "interfaceId",
          "type": "bytes4"
        }
      ],
      "name": "supportsInterface",
      "outputs": [
        {
          "internalType": "bool",
          "name": "",
          "type": "bool"
        }
      ],
      "stateMutability": "view",
      "type": "function"
    }
  ],
  "bytecode": "0x60806040523480156200001157600080fd5b5060405162001cf338038062001cf3833981810160405281019062000037919062000253565b6200004c6000801b836200008660201b60201c565b6200007e7fd8aa0f3194971a2a116679f7c2090f6939c8d4e01a2a8d7e41d55e5351469e63826200008660201b60201c565b50506200029a565b6200009882826200017760201b60201c565b6200017357600160008084815260200190815260200160002060000160008373ffffffffffffffffffffffffffffffffffffffff1673ffffffffffffffffffffffffffffffffffffffff16815260200190815260200160002060006101000a81548160ff02191690831515021790555062000118620001e160201b60201c565b73ffffffffffffffffffffffffffffffffffffffff168173ffffffffffffffffffffffffffffffffffffffff16837f2f8788117e7eff1d82e926ec794901d17c78024a50270940304540a733656f0d60405160405180910390a45b5050565b600080600084815260200190815260200160002060000160008373ffffffffffffffffffffffffffffffffffffffff1673ffffffffffffffffffffffffffffffffffffffff16815260200190815260200160002060009054906101000a900460ff16905092915050565b600033905090565b600080fd5b600073ffffffffffffffffffffffffffffffffffffffff82169050919050565b60006200021b82620001ee565b9050919050565b6200022d816200020e565b81146200023957600080fd5b50565b6000815190506200024d8162000222565b92915050565b600080604083850312156200026d576200026c620001e9565b5b60006200027d858286016200023c565b925050602062000290858286016200023c565b9150509250929050565b611a4980620002aa6000396000f3fe608060405234801561001057600080fd5b50600436106100a95760003560e01c806380a4d4141161007157806380a4d4141461016457806391d148541461018057806392b2e91b146101b0578063a217fddf146101cc578063c5aa6bf6146101ea578063d547741f14610206576100a9565b806301ffc9a7146100ae57806307bd0265146100de578063248a9ca3146100fc5780632f2ff15d1461012c57806336568abe14610148575b600080fd5b6100c860048036038101906100c39190610d3a565b610222565b6040516100d59190610d82565b60405180910390f35b6100e661029c565b6040516100f39190610db6565b60405180910390f35b61011660048036038101906101119190610dfd565b6102c0565b6040516101239190610db6565b60405180910390f35b61014660048036038101906101419190610e88565b6102df565b005b610162600480360381019061015d9190610e88565b610300565b005b61017e60048036038101906101799190610ec8565b610383565b005b61019a60048036038101906101959190610e88565b6103be565b6040516101a79190610d82565b60405180910390f35b6101ca60048036038101906101c59190610fe6565b610428565b005b6101d4610650565b6040516101e19190610db6565b60405180910390f35b61020460048036038101906101ff91906110c8565b610657565b005b610220600480360381019061021b9190610e88565b610782565b005b60007f7965db0b000000000000000000000000000000000000000000000000000000007bffffffffffffffffffffffffffffffffffffffffffffffffffffffff1916827bffffffffffffffffffffffffffffffffffffffffffffffffffffffff191614806102955750610294826107a3565b5b9050919050565b7fd8aa0f3194971a2a116679f7c2090f6939c8d4e01a2a8d7e41d55e5351469e6381565b6000806000838152602001908152602001600020600101549050919050565b6102e8826102c0565b6102f18161080d565b6102fb8383610821565b505050565b610308610901565b73ffffffffffffffffffffffffffffffffffffffff168173ffffffffffffffffffffffffffffffffffffffff1614610375576040517f08c379a000000000000000000000000000000000000000000000000000000000815260040161036c9061121a565b60405180910390fd5b61037f8282610909565b5050565b6000801b6103908161080d565b6103ba7fd8aa0f3194971a2a116679f7c2090f6939c8d4e01a2a8d7e41d55e5351469e6383610821565b5050565b600080600084815260200190815260200160002060000160008373ffffffffffffffffffffffffffffffffffffffff1673ffffffffffffffffffffffffffffffffffffffff16815260200190815260200160002060009054906101000a900460ff16905092915050565b7fd8aa0f3194971a2a116679f7c2090f6939c8d4e01a2a8d7e41d55e5351469e636104528161080d565b60008a3b905060008163ffffffff16036105cf5760008873ffffffffffffffffffffffffffffffffffffffff166332c02a148c8c6040518363ffffffff1660e01b81526004016104a3929190611249565b6020604051808303816000875af11580156104c2573d6000803e3d6000fd5b505050506040513d601f19601f820116820180604052508101906104e69190611287565b90508073ffffffffffffffffffffffffffffffffffffffff168c73ffffffffffffffffffffffffffffffffffffffff1614610556576040517f08c379a000000000000000000000000000000000000000000000000000000000815260040161054d90611326565b60405180910390fd5b8073ffffffffffffffffffffffffffffffffffffffff16637a9a162889898989896040518663ffffffff1660e01b8152600401610597959493929190611694565b600060405180830381600087803b1580156105b157600080fd5b505af11580156105c5573d6000803e3d6000fd5b5050505050610643565b8a73ffffffffffffffffffffffffffffffffffffffff16637a9a162888888888886040518663ffffffff1660e01b8152600401610610959493929190611694565b600060405180830381600087803b15801561062a57600080fd5b505af115801561063e573d6000803e3d6000fd5b505050505b5050505050505050505050565b6000801b81565b7fd8aa0f3194971a2a116679f7c2090f6939c8d4e01a2a8d7e41d55e5351469e636106818161080d565b60008773ffffffffffffffffffffffffffffffffffffffff166332c02a148b8b6040518363ffffffff1660e01b81526004016106be929190611249565b6020604051808303816000875af11580156106dd573d6000803e3d6000fd5b505050506040513d601f19601f820116820180604052508101906107019190611287565b90508073ffffffffffffffffffffffffffffffffffffffff16637a9a162888888888886040518663ffffffff1660e01b8152600401610744959493929190611694565b600060405180830381600087803b15801561075e57600080fd5b505af1158015610772573d6000803e3d6000fd5b5050505050505050505050505050565b61078b826102c0565b6107948161080d565b61079e8383610909565b505050565b60007f01ffc9a7000000000000000000000000000000000000000000000000000000007bffffffffffffffffffffffffffffffffffffffffffffffffffffffff1916827bffffffffffffffffffffffffffffffffffffffffffffffffffffffff1916149050919050565b61081e81610819610901565b6109ea565b50565b61082b82826103be565b6108fd57600160008084815260200190815260200160002060000160008373ffffffffffffffffffffffffffffffffffffffff1673ffffffffffffffffffffffffffffffffffffffff16815260200190815260200160002060006101000a81548160ff0219169083151502179055506108a2610901565b73ffffffffffffffffffffffffffffffffffffffff168173ffffffffffffffffffffffffffffffffffffffff16837f2f8788117e7eff1d82e926ec794901d17c78024a50270940304540a733656f0d60405160405180910390a45b5050565b600033905090565b61091382826103be565b156109e657600080600084815260200190815260200160002060000160008373ffffffffffffffffffffffffffffffffffffffff1673ffffffffffffffffffffffffffffffffffffffff16815260200190815260200160002060006101000a81548160ff02191690831515021790555061098b610901565b73ffffffffffffffffffffffffffffffffffffffff168173ffffffffffffffffffffffffffffffffffffffff16837ff6391f5c32d9c69d2a47ea670b442974b53935d1edc7fd64eb21e047a839171b60405160405180910390a45b5050565b6109f482826103be565b610a6b57610a0181610a6f565b610a0f8360001c6020610a9c565b604051602001610a209291906117e6565b6040516020818303038152906040526040517f08c379a0000000000000000000000000000000000000000000000000000000008152600401610a629190611859565b60405180910390fd5b5050565b6060610a958273ffffffffffffffffffffffffffffffffffffffff16601460ff16610a9c565b9050919050565b606060006002836002610aaf91906118aa565b610ab991906118ec565b67ffffffffffffffff811115610ad257610ad1611920565b5b6040519080825280601f01601f191660200182016040528015610b045781602001600182028036833780820191505090505b5090507f300000000000000000000000000000000000000000000000000000000000000081600081518110610b3c57610b3b61194f565b5b60200101907effffffffffffffffffffffffffffffffffffffffffffffffffffffffffffff1916908160001a9053507f780000000000000000000000000000000000000000000000000000000000000081600181518110610ba057610b9f61194f565b5b60200101907effffffffffffffffffffffffffffffffffffffffffffffffffffffffffffff1916908160001a90535060006001846002610be091906118aa565b610bea91906118ec565b90505b6001811115610c8a577f3031323334353637383961626364656600000000000000000000000000000000600f861660108110610c2c57610c2b61194f565b5b1a60f81b828281518110610c4357610c4261194f565b5b60200101907effffffffffffffffffffffffffffffffffffffffffffffffffffffffffffff1916908160001a905350600485901c945080610c839061197e565b9050610bed565b5060008414610cce576040517f08c379a0000000000000000000000000000000000000000000000000000000008152600401610cc5906119f3565b60405180910390fd5b8091505092915050565b600080fd5b600080fd5b60007fffffffff0000000000000000000000000000000000000000000000000000000082169050919050565b610d1781610ce2565b8114610d2257600080fd5b50565b600081359050610d3481610d0e565b92915050565b600060208284031215610d5057610d4f610cd8565b5b6000610d5e84828501610d25565b91505092915050565b60008115159050919050565b610d7c81610d67565b82525050565b6000602082019050610d976000830184610d73565b92915050565b6000819050919050565b610db081610d9d565b82525050565b6000602082019050610dcb6000830184610da7565b92915050565b610dda81610d9d565b8114610de557600080fd5b50565b600081359050610df781610dd1565b92915050565b600060208284031215610e1357610e12610cd8565b5b6000610e2184828501610de8565b91505092915050565b600073ffffffffffffffffffffffffffffffffffffffff82169050919050565b6000610e5582610e2a565b9050919050565b610e6581610e4a565b8114610e7057600080fd5b50565b600081359050610e8281610e5c565b92915050565b60008060408385031215610e9f57610e9e610cd8565b5b6000610ead85828601610de8565b9250506020610ebe85828601610e73565b9150509250929050565b600060208284031215610ede57610edd610cd8565b5b6000610eec84828501610e73565b91505092915050565b600080fd5b600080fd5b600080fd5b60008083601f840112610f1a57610f19610ef5565b5b8235905067ffffffffffffffff811115610f3757610f36610efa565b5b602083019150836020820283011115610f5357610f52610eff565b5b9250929050565b6000819050919050565b610f6d81610f5a565b8114610f7857600080fd5b50565b600081359050610f8a81610f64565b92915050565b60008083601f840112610fa657610fa5610ef5565b5b8235905067ffffffffffffffff811115610fc357610fc2610efa565b5b602083019150836001820283011115610fdf57610fde610eff565b5b9250929050565b600080600080600080600080600060e08a8c03121561100857611007610cd8565b5b60006110168c828d01610e73565b99505060206110278c828d01610e73565b98505060406110388c828d01610de8565b97505060606110498c828d01610e73565b96505060808a013567ffffffffffffffff81111561106a57611069610cdd565b5b6110768c828d01610f04565b955095505060a06110898c828d01610f7b565b93505060c08a013567ffffffffffffffff8111156110aa576110a9610cdd565b5b6110b68c828d01610f90565b92509250509295985092959850929598565b60008060008060008060008060c0898b0312156110e8576110e7610cd8565b5b60006110f68b828c01610e73565b98505060206111078b828c01610de8565b97505060406111188b828c01610e73565b965050606089013567ffffffffffffffff81111561113957611138610cdd565b5b6111458b828c01610f04565b955095505060806111588b828c01610f7b565b93505060a089013567ffffffffffffffff81111561117957611178610cdd565b5b6111858b828c01610f90565b92509250509295985092959890939650565b600082825260208201905092915050565b7f416363657373436f6e74726f6c3a2063616e206f6e6c792072656e6f756e636560008201527f20726f6c657320666f722073656c660000000000000000000000000000000000602082015250565b6000611204602f83611197565b915061120f826111a8565b604082019050919050565b60006020820190508181036000830152611233816111f7565b9050919050565b61124381610e4a565b82525050565b600060408201905061125e600083018561123a565b61126b6020830184610da7565b9392505050565b60008151905061128181610e5c565b92915050565b60006020828403121561129d5761129c610cd8565b5b60006112ab84828501611272565b91505092915050565b7f4d756c746943616c6c4465706c6f793a206465706c6f7965642061646472657360008201527f7320646f6573206e6f74206d6174636820434641000000000000000000000000602082015250565b6000611310603483611197565b915061131b826112b4565b604082019050919050565b6000602082019050818103600083015261133f81611303565b9050919050565b600082825260208201905092915050565b6000819050919050565b61136a81610d67565b811461137557600080fd5b50565b60008135905061138781611361565b92915050565b600061139c6020840184611378565b905092915050565b6113ad81610d67565b82525050565b60006113c26020840184610f7b565b905092915050565b6113d381610f5a565b82525050565b60006113e86020840184610e73565b905092915050565b6113f981610e4a565b82525050565b600080fd5b600080fd5b600080fd5b6000808335600160200384360303811261142b5761142a611409565b5b83810192508235915060208301925067ffffffffffffffff821115611453576114526113ff565b5b60018202360383131561146957611468611404565b5b509250929050565b600082825260208201905092915050565b82818337600083830152505050565b6000601f19601f8301169050919050565b60006114ae8385611471565b93506114bb838584611482565b6114c483611491565b840190509392505050565b600060c083016114e2600084018461138d565b6114ef60008601826113a4565b506114fd602084018461138d565b61150a60208601826113a4565b5061151860408401846113b3565b61152560408601826113ca565b5061153360608401846113d9565b61154060608601826113f0565b5061154e60808401846113b3565b61155b60808601826113ca565b5061156960a084018461140e565b85830360a087015261157c8382846114a2565b925050508091505092915050565b600061159683836114cf565b905092915050565b60008235600160c0038336030381126115ba576115b9611409565b5b82810191505092915050565b6000602082019050919050565b60006115df8385611346565b9350836020840285016115f184611357565b8060005b8781101561163557848403895261160c828461159e565b611616858261158a565b9450611621836115c6565b925060208a019950506001810190506115f5565b50829750879450505050509392505050565b61165081610f5a565b82525050565b600082825260208201905092915050565b60006116738385611656565b9350611680838584611482565b61168983611491565b840190509392505050565b600060608201905081810360008301526116af8187896115d3565b90506116be6020830186611647565b81810360408301526116d1818486611667565b90509695505050505050565b600081905092915050565b7f416363657373436f6e74726f6c3a206163636f756e7420000000000000000000600082015250565b600061171e6017836116dd565b9150611729826116e8565b601782019050919050565b600081519050919050565b60005b8381101561175d578082015181840152602081019050611742565b60008484015250505050565b600061177482611734565b61177e81856116dd565b935061178e81856020860161173f565b80840191505092915050565b7f206973206d697373696e6720726f6c6520000000000000000000000000000000600082015250565b60006117d06011836116dd565b91506117db8261179a565b601182019050919050565b60006117f182611711565b91506117fd8285611769565b9150611808826117c3565b91506118148284611769565b91508190509392505050565b600061182b82611734565b6118358185611197565b935061184581856020860161173f565b61184e81611491565b840191505092915050565b600060208201905081810360008301526118738184611820565b905092915050565b7f4e487b7100000000000000000000000000000000000000000000000000000000600052601160045260246000fd5b60006118b582610f5a565b91506118c083610f5a565b92508282026118ce81610f5a565b915082820484148315176118e5576118e461187b565b5b5092915050565b60006118f782610f5a565b915061190283610f5a565b925082820190508082111561191a5761191961187b565b5b92915050565b7f4e487b7100000000000000000000000000000000000000000000000000000000600052604160045260246000fd5b7f4e487b7100000000000000000000000000000000000000000000000000000000600052603260045260246000fd5b600061198982610f5a565b91506000820361199c5761199b61187b565b5b600182039050919050565b7f537472696e67733a20686578206c656e67746820696e73756666696369656e74600082015250565b60006119dd602083611197565b91506119e8826119a7565b602082019050919050565b60006020820190508181036000830152611a0c816119d0565b905091905056fea26469706673582212206ab03ef259367e14fc5a3b1bfe7e4b165a3fc0d1c2117f25adb511cfd8a658f964736f6c63430008110033",
  "linkReferences": {},
  "deployedLinkReferences": {}
}