{
    "_format": "hh-sol-artifact-1",
    "contractName": "WalletFactory",
    "sourceName": "contracts/WalletFactory.sol",
    "abi": [
        {
            "anonymous": false,
            "inputs": [
                {
                    "indexed": true,
                    "internalType": "address",
                    "name": "wallet",
                    "type": "address"
                },
                {
                    "indexed": true,
                    "internalType": "address",
                    "name": "mainModule",
                    "type": "address"
                },
                {
                    "indexed": false,
                    "internalType": "bytes32",
                    "name": "salt",
                    "type": "bytes32"
                }
            ],
            "name": "WalletDeployed",
            "type": "event"
        },
        {
            "inputs": [
                {
                    "internalType": "address",
                    "name": "_mainModule",
                    "type": "address"
                },
                {
                    "internalType": "bytes32",
                    "name": "_salt",
                    "type": "bytes32"
                }
            ],
            "name": "deploy",
            "outputs": [
                {
                    "internalType": "address",
                    "name": "",
                    "type": "address"
                }
            ],
            "stateMutability": "payable",
            "type": "function"
        },
        {
            "inputs": [
                {
                    "internalType": "address",
                    "name": "_mainModule",
                    "type": "address"
                },
                {
                    "internalType": "bytes32",
                    "name": "_salt",
                    "type": "bytes32"
                }
            ],
            "name": "getAddress",
            "outputs": [
                {
                    "internalType": "address",
                    "name": "",
                    "type": "address"
                }
            ],
            "stateMutability": "view",
            "type": "function"
        }
    ],
    "bytecode": "0x608060405234801561001057600080fd5b50610c34806100206000396000f3fe6080604052600436106100295760003560e01c806332c02a141461002e5780637ac4ed641461005e575b600080fd5b610048600480360381019061004391906103a7565b61009b565b60405161005591906103f6565b60405180910390f35b34801561006a57600080fd5b50610085600480360381019061008091906103a7565b61025a565b60405161009291906103f6565b60405180910390f35b6000806100a8848461025a565b905060008173ffffffffffffffffffffffffffffffffffffffff163b14610104576040517f08c379a00000000000000000000000000000000000000000000000000000000081526004016100fb9061046e565b60405180910390fd5b60006040518060200161011690610301565b6020820181038252601f19601f820116604052508560405160200161013b91906103f6565b60405160208183030381529060405260405160200161015b9291906104ff565b60405160208183030381529060405290506000848251602084016000f59050600073ffffffffffffffffffffffffffffffffffffffff168173ffffffffffffffffffffffffffffffffffffffff16036101e9576040517f08c379a00000000000000000000000000000000000000000000000000000000081526004016101e09061056f565b60405180910390fd5b8573ffffffffffffffffffffffffffffffffffffffff168173ffffffffffffffffffffffffffffffffffffffff167f195bcaf5c86c75410014291983a0bc0b60a4ae2874ff863699229144c361a21687604051610246919061059e565b60405180910390a380935050505092915050565b60008030836040518060200161026f90610301565b6020820181038252601f19601f820116604052508660405160200161029491906103f6565b6040516020818303038152906040526040516020016102b49291906104ff565b604051602081830303815290604052805190602001206040516020016102dc93929190610679565b6040516020818303038152906040528051906020012090508060001c91505092915050565b61053d806106c283390190565b600080fd5b600073ffffffffffffffffffffffffffffffffffffffff82169050919050565b600061033e82610313565b9050919050565b61034e81610333565b811461035957600080fd5b50565b60008135905061036b81610345565b92915050565b6000819050919050565b61038481610371565b811461038f57600080fd5b50565b6000813590506103a18161037b565b92915050565b600080604083850312156103be576103bd61030e565b5b60006103cc8582860161035c565b92505060206103dd85828601610392565b9150509250929050565b6103f081610333565b82525050565b600060208201905061040b60008301846103e7565b92915050565b600082825260208201905092915050565b7f57616c6c657420616c7265616479206465706c6f796564000000000000000000600082015250565b6000610458601783610411565b915061046382610422565b602082019050919050565b600060208201905081810360008301526104878161044b565b9050919050565b600081519050919050565b600081905092915050565b60005b838110156104c25780820151818401526020810190506104a7565b60008484015250505050565b60006104d98261048e565b6104e38185610499565b93506104f38185602086016104a4565b80840191505092915050565b600061050b82856104ce565b915061051782846104ce565b91508190509392505050565b7f4465706c6f79206661696c656400000000000000000000000000000000000000600082015250565b6000610559600d83610411565b915061056482610523565b602082019050919050565b600060208201905081810360008301526105888161054c565b9050919050565b61059881610371565b82525050565b60006020820190506105b3600083018461058f565b92915050565b600081905092915050565b7fff00000000000000000000000000000000000000000000000000000000000000600082015250565b60006105fa6001836105b9565b9150610605826105c4565b600182019050919050565b60008160601b9050919050565b600061062882610610565b9050919050565b600061063a8261061d565b9050919050565b61065261064d82610333565b61062f565b82525050565b6000819050919050565b61067361066e82610371565b610658565b82525050565b6000610684826105ed565b91506106908286610641565b6014820191506106a08285610662565b6020820191506106b08284610662565b60208201915081905094935050505056fe608060405234801561001057600080fd5b5060405161053d38038061053d833981810160405281019061003291906100db565b806000806101000a81548173ffffffffffffffffffffffffffffffffffffffff021916908373ffffffffffffffffffffffffffffffffffffffff16021790555050610108565b600080fd5b600073ffffffffffffffffffffffffffffffffffffffff82169050919050565b60006100a88261007d565b9050919050565b6100b88161009d565b81146100c357600080fd5b50565b6000815190506100d5816100af565b92915050565b6000602082840312156100f1576100f0610078565b5b60006100ff848285016100c6565b91505092915050565b610426806101176000396000f3fe60806040526004361061002d5760003560e01c80633ed940a7146100395780633f579f421461006457610034565b3661003457005b600080fd5b34801561004557600080fd5b5061004e61008d565b60405161005b91906101a9565b60405180910390f35b34801561007057600080fd5b5061008b600480360381019061008691906102a7565b6100b1565b005b60008054906101000a900473ffffffffffffffffffffffffffffffffffffffff1681565b60008473ffffffffffffffffffffffffffffffffffffffff168484846040516100db92919061035a565b60006040518083038185875af1925050503d8060008114610118576040519150601f19603f3d011682016040523d82523d6000602084013e61011d565b606091505b5050905080610161576040517f08c379a0000000000000000000000000000000000000000000000000000000008152600401610158906103d0565b60405180910390fd5b5050505050565b600073ffffffffffffffffffffffffffffffffffffffff82169050919050565b600061019382610168565b9050919050565b6101a381610188565b82525050565b60006020820190506101be600083018461019a565b92915050565b600080fd5b600080fd5b60006101d982610168565b9050919050565b6101e9816101ce565b81146101f457600080fd5b50565b600081359050610206816101e0565b92915050565b6000819050919050565b61021f8161020c565b811461022a57600080fd5b50565b60008135905061023c81610216565b92915050565b600080fd5b600080fd5b600080fd5b60008083601f84011261026757610266610242565b5b8235905067ffffffffffffffff81111561028457610283610247565b5b6020830191508360018202830111156102a05761029f61024c565b5b9250929050565b600080600080606085870312156102c1576102c06101c4565b5b60006102cf878288016101f7565b94505060206102e08782880161022d565b935050604085013567ffffffffffffffff811115610301576103006101c9565b5b61030d87828801610251565b925092505092959194509250565b600081905092915050565b82818337600083830152505050565b6000610341838561031b565b935061034e838584610326565b82840190509392505050565b6000610367828486610335565b91508190509392505050565b600082825260208201905092915050565b7f5472616e73616374696f6e206661696c65640000000000000000000000000000600082015250565b60006103ba601283610373565b91506103c582610384565b602082019050919050565b600060208201905081810360008301526103e9816103ad565b905091905056fea2646970667358221220a38f4caa95b558b341558d2335161c7faea853946274f6f54e3e4d6326194e6564736f6c63430008110033a264697066735822122036e0bd3029e6312d2d421af3b28b4c92bacff2d42791009fa916660df9d679db64736f6c63430008110033",
    "linkReferences": {},
    "deployedLinkReferences": {}
}